{"abi":[{"type":"constructor","inputs":[{"name":"_operator","type":"address","internalType":"address"}],"stateMutability":"nonpayable"},{"type":"function","name":"AAVE_V3","inputs":[],"outputs":[{"name":"","type":"address","internalType":"address"}],"stateMutability":"view"},{"type":"function","name":"AERO","inputs":[],"outputs":[{"name":"","type":"address","internalType":"address"}],"stateMutability":"view"},{"type":"function","name":"AERODROME_FACTORY","inputs":[],"outputs":[{"name":"","type":"address","internalType":"address"}],"stateMutability":"view"},{"type":"function","name":"AERODROME_ROUTER","inputs":[],"outputs":[{"name":"","type":"address","internalType":"address"}],"stateMutability":"view"},{"type":"function","name":"A_USDC","inputs":[],"outputs":[{"name":"","type":"address","internalType":"address"}],"stateMutability":"view"},{"type":"function","name":"MORPHO_VAULT","inputs":[],"outputs":[{"name":"","type":"address","internalType":"address"}],"stateMutability":"view"},{"type":"function","name":"OPERATOR","inputs":[],"outputs":[{"name":"","type":"address","internalType":"address"}],"stateMutability":"view"},{"type":"function","name":"UNISWAP_ROUTER","inputs":[],"outputs":[{"name":"","type":"address","internalType":"address"}],"stateMutability":"view"},{"type":"function","name":"USDC","inputs":[],"outputs":[{"name":"","type":"address","internalType":"address"}],"stateMutability":"view"},{"type":"function","name":"WETH","inputs":[],"outputs":[{"name":"","type":"address","internalType":"address"}],"stateMutability":"view"},{"type":"function","name":"WSTETH","inputs":[],"outputs":[{"name":"","type":"address","internalType":"address"}],"stateMutability":"view"},{"type":"function","name":"forward","inputs":[{"name":"user","type":"address","internalType":"address"},{"name":"protocol","type":"string","internalType":"string"},{"name":"amount","type":"uint256","internalType":"uint256"}],"outputs":[],"stateMutability":"nonpayable"},{"type":"function","name":"forwardSwap","inputs":[{"name":"user","type":"address","internalType":"address"},{"name":"tokenOut","type":"address","internalType":"address"},{"name":"fee","type":"uint24","internalType":"uint24"},{"name":"amount","type":"uint256","internalType":"uint256"}],"outputs":[],"stateMutability":"nonpayable"},{"type":"function","name":"forwardSwapAero","inputs":[{"name":"user","type":"address","internalType":"address"},{"name":"tokenOut","type":"address","internalType":"address"},{"name":"amount","type":"uint256","internalType":"uint256"}],"outputs":[],"stateMutability":"nonpayable"},{"type":"function","name":"recover","inputs":[{"name":"token","type":"address","internalType":"address"},{"name":"to","type":"address","internalType":"address"},{"name":"amount","type":"uint256","internalType":"uint256"}],"outputs":[],"stateMutability":"nonpayable"},{"type":"function","name":"usdcBalance","inputs":[],"outputs":[{"name":"","type":"uint256","internalType":"uint256"}],"stateMutability":"view"},{"type":"function","name":"userAaveBalance","inputs":[{"name":"user","type":"address","internalType":"address"}],"outputs":[{"name":"","type":"uint256","internalType":"uint256"}],"stateMutability":"view"},{"type":"function","name":"userMorphoBalance","inputs":[{"name":"user","type":"address","internalType":"address"}],"outputs":[{"name":"","type":"uint256","internalType":"uint256"}],"stateMutability":"view"},{"type":"function","name":"withdraw","inputs":[{"name":"user","type":"address","internalType":"address"},{"name":"protocol","type":"string","internalType":"string"},{"name":"amount","type":"uint256","internalType":"uint256"}],"outputs":[],"stateMutability":"nonpayable"},{"type":"event","name":"Deposited","inputs":[{"name":"user","type":"address","indexed":true,"internalType":"address"},{"name":"protocol","type":"string","indexed":false,"internalType":"string"},{"name":"amount","type":"uint256","indexed":false,"internalType":"uint256"}],"anonymous":false},{"type":"event","name":"Returned","inputs":[{"name":"user","type":"address","indexed":true,"internalType":"address"},{"name":"amount","type":"uint256","indexed":false,"internalType":"uint256"},{"name":"reason","type":"string","indexed":false,"internalType":"string"}],"anonymous":false},{"type":"event","name":"Withdrawn","inputs":[{"name":"user","type":"address","indexed":true,"internalType":"address"},{"name":"protocol","type":"string","indexed":false,"internalType":"string"},{"name":"amount","type":"uint256","indexed":false,"internalType":"uint256"}],"anonymous":false}],"bytecode":{"object":"0x60a060405234801561000f575f80fd5b50604051611c2a380380611c2a83398101604081905261002e91610089565b6001600160a01b0381166100785760405162461bcd60e51b815260206004820152600d60248201526c2d32b9379037b832b930ba37b960991b604482015260640160405180910390fd5b6001600160a01b03166080526100b6565b5f60208284031215610099575f80fd5b81516001600160a01b03811681146100af575f80fd5b9392505050565b608051611b396100f15f395f818161025f0152818161030601528181610414015281816106d9015281816108ab0152610d6b0152611b395ff3fe608060405234801561000f575f80fd5b506004361061011c575f3560e01c806373688e56116100a9578063ad5c46481161006e578063ad5c464814610281578063c9d05ea11461028f578063d8264920146102aa578063d9fb643a146102c5578063db37bab4146102e0575f80fd5b806373688e56146102185780637dd936a61461022057806383c2ae4b1461023357806389a3027114610246578063983d27371461025a575f80fd5b806332139496116100ef578063321394961461019b5780633f7eca4a146101b65780635bca49d2146101c95780635df6c63e146101e45780636485b555146101f7575f80fd5b806315cb51ce146101205780631691bd6f146101585780631ec82cb8146101735780631f6eafc514610188575b5f80fd5b61013b73420dd381b31aef6683db6b902084cb0ffece40da81565b6040516001600160a01b0390911681526020015b60405180910390f35b61013b73940181a94a35a4569e4529a3cdfb74e38fd9863181565b610186610181366004611714565b6102fb565b005b61018661019636600461174d565b610409565b61013b73a238dd80c259a72e81d7e4664a9801593f98d1c581565b6101866101c43660046117cf565b6106ce565b61013b73c1256ae5ff1cf2719d4937adb3bbccab2e00a2ca81565b6101866101f236600461174d565b6108a0565b61020a610205366004611820565b610c6c565b60405190815260200161014f565b61020a610cef565b61018661022e366004611714565b610d60565b61020a610241366004611820565b610f1e565b61013b5f80516020611ae483398151915281565b61013b7f000000000000000000000000000000000000000000000000000000000000000081565b61013b6006602160991b0181565b61013b734e65fe4dba92790696d040ac24aa414708f5c0ab81565b61013b732626664c2603336e57b271c5c0b26f421741e48181565b61013b73c1cba3fcea344f92d9239c08c0568f6f2f0ee45281565b61013b73cf77a3ba9a5ca399b7c97c74d54e5b1beb874e4381565b336001600160a01b037f0000000000000000000000000000000000000000000000000000000000000000161461034c5760405162461bcd60e51b815260040161034390611840565b60405180910390fd5b6001600160a01b0382166103935760405162461bcd60e51b815260206004820152600e60248201526d16995c9bc81c9958da5c1a595b9d60921b6044820152606401610343565b60405163a9059cbb60e01b81526001600160a01b0383811660048301526024820183905284169063a9059cbb906044016020604051808303815f875af11580156103df573d5f803e3d5ffd5b505050506040513d601f19601f820116820180604052508101906104039190611866565b50505050565b336001600160a01b037f000000000000000000000000000000000000000000000000000000000000000016146104515760405162461bcd60e51b815260040161034390611840565b6001600160a01b0384166104935760405162461bcd60e51b81526020600482015260096024820152682d32b937903ab9b2b960b91b6044820152606401610343565b5f81116104d05760405162461bcd60e51b815260206004820152600b60248201526a16995c9bc8185b5bdd5b9d60aa1b6044820152606401610343565b5f83836040516104e1929190611885565b604051809103902090507fe0a39fef8aa5887c76606e7a14a5db8dc6676191e4866b2a609a3aa003b1832981036105215761051c8583610f60565b610682565b7f281335d191299304b6bdb3c4042efa6414c8988df37f941868fa00511796515e81036105525761051c8583611112565b7fa2a03459171c76bff45817330c10ef9f8af07011a33005b73b50189bbc7e7132810361059c5761051c6006602160991b015f80516020611ae4833981519152610bb88886611160565b7fc570e6c17f57bc6841b1057f94fcf1785f440006714dbd98f64d859b54cd25d381036105f05761051c73940181a94a35a4569e4529a3cdfb74e38fd986315f80516020611ae483398151915287856111eb565b7f8ca84c05e743ec4aa81b7149831bbc822389ff48eadb040bb205a5747b0330de81036106475761051c73c1cba3fcea344f92d9239c08c0568f6f2f0ee4525f80516020611ae48339815191526101f48886611160565b60405162461bcd60e51b815260206004820152601060248201526f155b9adb9bdddb881c1c9bdd1bd8dbdb60821b6044820152606401610343565b846001600160a01b03167f18af30a54a1951aeee806c16cdcb8d087ed1a095f0d9a87261b92cef2c6cc92d8585856040516106bf939291906118bc565b60405180910390a25050505050565b336001600160a01b037f000000000000000000000000000000000000000000000000000000000000000016146107165760405162461bcd60e51b815260040161034390611840565b6001600160a01b0384161580159061073657506001600160a01b03831615155b801561074157505f81115b6107785760405162461bcd60e51b8152602060048201526008602482015267626164206172677360c01b6044820152606401610343565b6040516370a0823160e01b815230600482015281905f80516020611ae4833981519152906370a0823190602401602060405180830381865afa1580156107c0573d5f803e3d5ffd5b505050506040513d601f19601f820116820180604052508101906107e491906118df565b10156108025760405162461bcd60e51b8152600401610343906118f6565b6108305f80516020611ae48339815191528462ffffff8516156108255784610829565b610bb85b87856113a8565b836001600160a01b03167ffd4bdef056842e4615d2a093647094c0b9bf67c63662d614d63fefd617e0add28260405161089291906040808252600c908201526b756e69737761702d636f707960a01b6060820152602081019190915260800190565b60405180910390a250505050565b336001600160a01b037f000000000000000000000000000000000000000000000000000000000000000016146108e85760405162461bcd60e51b815260040161034390611840565b6001600160a01b03841661092a5760405162461bcd60e51b81526020600482015260096024820152682d32b937903ab9b2b960b91b6044820152606401610343565b5f81116109675760405162461bcd60e51b815260206004820152600b60248201526a16995c9bc8185b5bdd5b9d60aa1b6044820152606401610343565b6040516370a0823160e01b815230600482015281905f80516020611ae4833981519152906370a0823190602401602060405180830381865afa1580156109af573d5f803e3d5ffd5b505050506040513d601f19601f820116820180604052508101906109d391906118df565b10156109f15760405162461bcd60e51b8152600401610343906118f6565b5f8383604051610a02929190611885565b604051809103902090507fe0a39fef8aa5887c76606e7a14a5db8dc6676191e4866b2a609a3aa003b183298103610a4257610a3d8583611520565b610c2f565b7f281335d191299304b6bdb3c4042efa6414c8988df37f941868fa00511796515e8103610a7357610a3d858361162b565b7fa2a03459171c76bff45817330c10ef9f8af07011a33005b73b50189bbc7e71328103610abd57610a3d5f80516020611ae48339815191526006602160991b01610bb888866113a8565b7fc570e6c17f57bc6841b1057f94fcf1785f440006714dbd98f64d859b54cd25d38103610b1157610a3d5f80516020611ae483398151915273940181a94a35a4569e4529a3cdfb74e38fd9863187856111eb565b7f8ca84c05e743ec4aa81b7149831bbc822389ff48eadb040bb205a5747b0330de8103610b6857610a3d5f80516020611ae483398151915273c1cba3fcea344f92d9239c08c0568f6f2f0ee4526101f488866113a8565b60405163a9059cbb60e01b81526001600160a01b0386166004820152602481018390525f80516020611ae48339815191529063a9059cbb906044016020604051808303815f875af1158015610bbf573d5f803e3d5ffd5b505050506040513d601f19601f82011682018060405250810190610be39190611866565b50846001600160a01b03167fa1e16e95eb5b500b72484b8c9c1cfc21878478ad8b47006bab4e5d282a7f933c838686604051610c2193929190611921565b60405180910390a250610403565b846001600160a01b03167ffd4bdef056842e4615d2a093647094c0b9bf67c63662d614d63fefd617e0add28585856040516106bf939291906118bc565b6040516370a0823160e01b81526001600160a01b03821660048201525f90734e65fe4dba92790696d040ac24aa414708f5c0ab906370a08231906024015b602060405180830381865afa158015610cc5573d5f803e3d5ffd5b505050506040513d601f19601f82011682018060405250810190610ce991906118df565b92915050565b6040516370a0823160e01b81523060048201525f905f80516020611ae4833981519152906370a0823190602401602060405180830381865afa158015610d37573d5f803e3d5ffd5b505050506040513d601f19601f82011682018060405250810190610d5b91906118df565b905090565b336001600160a01b037f00000000000000000000000000000000000000000000000000000000000000001614610da85760405162461bcd60e51b815260040161034390611840565b6001600160a01b03831615801590610dc857506001600160a01b03821615155b8015610dd357505f81115b610e0a5760405162461bcd60e51b8152602060048201526008602482015267626164206172677360c01b6044820152606401610343565b6040516370a0823160e01b815230600482015281905f80516020611ae4833981519152906370a0823190602401602060405180830381865afa158015610e52573d5f803e3d5ffd5b505050506040513d601f19601f82011682018060405250810190610e7691906118df565b1015610e945760405162461bcd60e51b8152600401610343906118f6565b610ead5f80516020611ae48339815191528385846111eb565b826001600160a01b03167ffd4bdef056842e4615d2a093647094c0b9bf67c63662d614d63fefd617e0add282604051610f1191906040808252600e908201526d6165726f64726f6d652d636f707960901b6060820152602081019190915260800190565b60405180910390a2505050565b60405163ce96cb7760e01b81526001600160a01b03821660048201525f9073c1256ae5ff1cf2719d4937adb3bbccab2e00a2ca9063ce96cb7790602401610caa565b6040516323b872dd60e01b81526001600160a01b038316600482015230602482015260448101829052734e65fe4dba92790696d040ac24aa414708f5c0ab906323b872dd906064016020604051808303815f875af1158015610fc4573d5f803e3d5ffd5b505050506040513d601f19601f82011682018060405250810190610fe89190611866565b5060405163095ea7b360e01b815273a238dd80c259a72e81d7e4664a9801593f98d1c5600482015260248101829052734e65fe4dba92790696d040ac24aa414708f5c0ab9063095ea7b3906044016020604051808303815f875af1158015611052573d5f803e3d5ffd5b505050506040513d601f19601f820116820180604052508101906110769190611866565b50604051631a4ca37b60e21b81525f80516020611ae48339815191526004820152602481018290526001600160a01b038316604482015273a238dd80c259a72e81d7e4664a9801593f98d1c5906369328dec906064015b6020604051808303815f875af11580156110e9573d5f803e3d5ffd5b505050506040513d601f19601f8201168201806040525081019061110d91906118df565b505050565b604051632d182be560e21b8152600481018290526001600160a01b03831660248201819052604482015273c1256ae5ff1cf2719d4937adb3bbccab2e00a2ca9063b460af94906064016110cd565b6040516323b872dd60e01b81526001600160a01b038381166004830152306024830152604482018390528616906323b872dd906064016020604051808303815f875af11580156111b2573d5f803e3d5ffd5b505050506040513d601f19601f820116820180604052508101906111d69190611866565b506111e485858585856113a8565b5050505050565b60405163095ea7b360e01b815273cf77a3ba9a5ca399b7c97c74d54e5b1beb874e436004820152602481018290526001600160a01b0385169063095ea7b3906044016020604051808303815f875af1158015611249573d5f803e3d5ffd5b505050506040513d601f19601f8201168201806040525081019061126d9190611866565b506040805160018082528183019092525f91816020015b604080516080810182525f8082526020808301829052928201819052606082015282525f19909201910181611284575050604080516080810182526001600160a01b038089168252871660208201525f91810182905273420dd381b31aef6683db6b902084cb0ffece40da606082015282519293509183919061130957611309611957565b602090810291909101015273cf77a3ba9a5ca399b7c97c74d54e5b1beb874e4363cac88ea9835f848761133e4261070861196b565b6040518663ffffffff1660e01b815260040161135e95949392919061198a565b5f604051808303815f875af1158015611379573d5f803e3d5ffd5b505050506040513d5f823e601f3d908101601f191682016040526113a09190810190611a2a565b505050505050565b60405163095ea7b360e01b8152732626664c2603336e57b271c5c0b26f421741e4816004820152602481018290526001600160a01b0386169063095ea7b3906044016020604051808303815f875af1158015611406573d5f803e3d5ffd5b505050506040513d601f19601f8201168201806040525081019061142a9190611866565b506040805160e0810182526001600160a01b0387811682528681166020830190815262ffffff87811684860190815287841660608601908152608086018881525f60a0880181815260c0890191825298516304e45aaf60e01b815297518716600489015294518616602488015291519092166044860152905183166064850152516084840152925160a4830152915190911660c4820152732626664c2603336e57b271c5c0b26f421741e481906304e45aaf9060e4016020604051808303815f875af11580156114fc573d5f803e3d5ffd5b505050506040513d601f19601f820116820180604052508101906113a091906118df565b60405163095ea7b360e01b815273a238dd80c259a72e81d7e4664a9801593f98d1c56004820152602481018290525f80516020611ae48339815191529063095ea7b3906044016020604051808303815f875af1158015611582573d5f803e3d5ffd5b505050506040513d601f19601f820116820180604052508101906115a69190611866565b5060405163617ba03760e01b81525f80516020611ae48339815191526004820152602481018290526001600160a01b03831660448201525f606482015273a238dd80c259a72e81d7e4664a9801593f98d1c59063617ba037906084015f604051808303815f87803b158015611619575f80fd5b505af11580156113a0573d5f803e3d5ffd5b60405163095ea7b360e01b815273c1256ae5ff1cf2719d4937adb3bbccab2e00a2ca6004820152602481018290525f80516020611ae48339815191529063095ea7b3906044016020604051808303815f875af115801561168d573d5f803e3d5ffd5b505050506040513d601f19601f820116820180604052508101906116b19190611866565b50604051636e553f6560e01b8152600481018290526001600160a01b038316602482015273c1256ae5ff1cf2719d4937adb3bbccab2e00a2ca90636e553f65906044016110cd565b80356001600160a01b038116811461170f575f80fd5b919050565b5f805f60608486031215611726575f80fd5b61172f846116f9565b925061173d602085016116f9565b9150604084013590509250925092565b5f805f8060608587031215611760575f80fd5b611769856116f9565b9350602085013567ffffffffffffffff80821115611785575f80fd5b818701915087601f830112611798575f80fd5b8135818111156117a6575f80fd5b8860208285010111156117b7575f80fd5b95986020929092019750949560400135945092505050565b5f805f80608085870312156117e2575f80fd5b6117eb856116f9565b93506117f9602086016116f9565b9250604085013562ffffff81168114611810575f80fd5b9396929550929360600135925050565b5f60208284031215611830575f80fd5b611839826116f9565b9392505050565b6020808252600c908201526b2737ba1037b832b930ba37b960a11b604082015260600190565b5f60208284031215611876575f80fd5b81518015158114611839575f80fd5b818382375f9101908152919050565b81835281816020850137505f828201602090810191909152601f909101601f19169091010190565b604081525f6118cf604083018587611894565b9050826020830152949350505050565b5f602082840312156118ef575f80fd5b5051919050565b602080825260119082015270496e73756666696369656e74205553444360781b604082015260600190565b838152604060208201525f61193a604083018486611894565b95945050505050565b634e487b7160e01b5f52604160045260245ffd5b634e487b7160e01b5f52603260045260245ffd5b80820180821115610ce957634e487b7160e01b5f52601160045260245ffd5b5f60a0820187835260208781850152604060a08186015282885180855260c087019150838a0194505f5b818110156119fe57855180516001600160a01b03908116855286820151811687860152858201511515868601526060918201511690840152948401946080909201916001016119b4565b50506001600160a01b03881660608701529350611a1a92505050565b8260808301529695505050505050565b5f6020808385031215611a3b575f80fd5b825167ffffffffffffffff80821115611a52575f80fd5b818501915085601f830112611a65575f80fd5b815181811115611a7757611a77611943565b8060051b604051601f19603f83011681018181108582111715611a9c57611a9c611943565b604052918252848201925083810185019188831115611ab9575f80fd5b938501935b82851015611ad757845184529385019392850192611abe565b9897505050505050505056fe000000000000000000000000833589fcd6edb6e08f4c7c32d4f71b54bda02913a264697066735822122077084762a0d7f142b2a950be7ac4d99eb8c9f2f786f915040af594c0a441d17564736f6c63430008140033","linkReferences":{}},"methodIdentifiers":{"AAVE_V3()":"32139496","AERO()":"1691bd6f","AERODROME_FACTORY()":"15cb51ce","AERODROME_ROUTER()":"db37bab4","A_USDC()":"c9d05ea1","MORPHO_VAULT()":"5bca49d2","OPERATOR()":"983d2737","UNISWAP_ROUTER()":"d8264920","USDC()":"89a30271","WETH()":"ad5c4648","WSTETH()":"d9fb643a","forward(address,string,uint256)":"5df6c63e","forwardSwap(address,address,uint24,uint256)":"3f7eca4a","forwardSwapAero(address,address,uint256)":"7dd936a6","recover(address,address,uint256)":"1ec82cb8","usdcBalance()":"73688e56","userAaveBalance(address)":"6485b555","userMorphoBalance(address)":"83c2ae4b","withdraw(address,string,uint256)":"1f6eafc5"},"id":0}