{"abi":[{"type":"constructor","inputs":[{"name":"_operator","type":"address","internalType":"address"}],"stateMutability":"nonpayable"},{"type":"function","name":"AAVE_V3","inputs":[],"outputs":[{"name":"","type":"address","internalType":"address"}],"stateMutability":"view"},{"type":"function","name":"AERO","inputs":[],"outputs":[{"name":"","type":"address","internalType":"address"}],"stateMutability":"view"},{"type":"function","name":"AERODROME_FACTORY","inputs":[],"outputs":[{"name":"","type":"address","internalType":"address"}],"stateMutability":"view"},{"type":"function","name":"AERODROME_ROUTER","inputs":[],"outputs":[{"name":"","type":"address","internalType":"address"}],"stateMutability":"view"},{"type":"function","name":"A_USDC","inputs":[],"outputs":[{"name":"","type":"address","internalType":"address"}],"stateMutability":"view"},{"type":"function","name":"MORPHO_VAULT","inputs":[],"outputs":[{"name":"","type":"address","internalType":"address"}],"stateMutability":"view"},{"type":"function","name":"OPERATOR","inputs":[],"outputs":[{"name":"","type":"address","internalType":"address"}],"stateMutability":"view"},{"type":"function","name":"UNISWAP_ROUTER","inputs":[],"outputs":[{"name":"","type":"address","internalType":"address"}],"stateMutability":"view"},{"type":"function","name":"USDC","inputs":[],"outputs":[{"name":"","type":"address","internalType":"address"}],"stateMutability":"view"},{"type":"function","name":"WETH","inputs":[],"outputs":[{"name":"","type":"address","internalType":"address"}],"stateMutability":"view"},{"type":"function","name":"WSTETH","inputs":[],"outputs":[{"name":"","type":"address","internalType":"address"}],"stateMutability":"view"},{"type":"function","name":"forward","inputs":[{"name":"user","type":"address","internalType":"address"},{"name":"protocol","type":"string","internalType":"string"},{"name":"amount","type":"uint256","internalType":"uint256"}],"outputs":[],"stateMutability":"nonpayable"},{"type":"function","name":"recover","inputs":[{"name":"token","type":"address","internalType":"address"},{"name":"to","type":"address","internalType":"address"},{"name":"amount","type":"uint256","internalType":"uint256"}],"outputs":[],"stateMutability":"nonpayable"},{"type":"function","name":"usdcBalance","inputs":[],"outputs":[{"name":"","type":"uint256","internalType":"uint256"}],"stateMutability":"view"},{"type":"function","name":"userAaveBalance","inputs":[{"name":"user","type":"address","internalType":"address"}],"outputs":[{"name":"","type":"uint256","internalType":"uint256"}],"stateMutability":"view"},{"type":"function","name":"userMorphoBalance","inputs":[{"name":"user","type":"address","internalType":"address"}],"outputs":[{"name":"","type":"uint256","internalType":"uint256"}],"stateMutability":"view"},{"type":"function","name":"withdraw","inputs":[{"name":"user","type":"address","internalType":"address"},{"name":"protocol","type":"string","internalType":"string"},{"name":"amount","type":"uint256","internalType":"uint256"}],"outputs":[],"stateMutability":"nonpayable"},{"type":"event","name":"Deposited","inputs":[{"name":"user","type":"address","indexed":true,"internalType":"address"},{"name":"protocol","type":"string","indexed":false,"internalType":"string"},{"name":"amount","type":"uint256","indexed":false,"internalType":"uint256"}],"anonymous":false},{"type":"event","name":"Returned","inputs":[{"name":"user","type":"address","indexed":true,"internalType":"address"},{"name":"amount","type":"uint256","indexed":false,"internalType":"uint256"},{"name":"reason","type":"string","indexed":false,"internalType":"string"}],"anonymous":false},{"type":"event","name":"Withdrawn","inputs":[{"name":"user","type":"address","indexed":true,"internalType":"address"},{"name":"protocol","type":"string","indexed":false,"internalType":"string"},{"name":"amount","type":"uint256","indexed":false,"internalType":"uint256"}],"anonymous":false}],"bytecode":{"object":"0x60a060405234801561000f575f80fd5b506040516117f83803806117f883398101604081905261002e91610089565b6001600160a01b0381166100785760405162461bcd60e51b815260206004820152600d60248201526c2d32b9379037b832b930ba37b960991b604482015260640160405180910390fd5b6001600160a01b03166080526100b6565b5f60208284031215610099575f80fd5b81516001600160a01b03811681146100af575f80fd5b9392505050565b6080516117156100e35f395f8181610223015281816102ca015281816103d8015261069d01526117155ff3fe608060405234801561000f575f80fd5b5060043610610106575f3560e01c806373688e561161009e578063ad5c46481161006e578063ad5c464814610245578063c9d05ea114610253578063d82649201461026e578063d9fb643a14610289578063db37bab4146102a4575f80fd5b806373688e56146101ef57806383c2ae4b146101f757806389a302711461020a578063983d27371461021e575f80fd5b806332139496116100d957806332139496146101855780635bca49d2146101a05780635df6c63e146101bb5780636485b555146101ce575f80fd5b806315cb51ce1461010a5780631691bd6f146101425780631ec82cb81461015d5780631f6eafc514610172575b5f80fd5b61012573420dd381b31aef6683db6b902084cb0ffece40da81565b6040516001600160a01b0390911681526020015b60405180910390f35b61012573940181a94a35a4569e4529a3cdfb74e38fd9863181565b61017061016b36600461136c565b6102bf565b005b6101706101803660046113a5565b6103cd565b61012573a238dd80c259a72e81d7e4664a9801593f98d1c581565b61012573c1256ae5ff1cf2719d4937adb3bbccab2e00a2ca81565b6101706101c93660046113a5565b610692565b6101e16101dc366004611427565b610a82565b604051908152602001610139565b6101e1610b05565b6101e1610205366004611427565b610b76565b6101255f805160206116c083398151915281565b6101257f000000000000000000000000000000000000000000000000000000000000000081565b6101256006602160991b0181565b610125734e65fe4dba92790696d040ac24aa414708f5c0ab81565b610125732626664c2603336e57b271c5c0b26f421741e48181565b61012573c1cba3fcea344f92d9239c08c0568f6f2f0ee45281565b61012573cf77a3ba9a5ca399b7c97c74d54e5b1beb874e4381565b336001600160a01b037f000000000000000000000000000000000000000000000000000000000000000016146103105760405162461bcd60e51b815260040161030790611447565b60405180910390fd5b6001600160a01b0382166103575760405162461bcd60e51b815260206004820152600e60248201526d16995c9bc81c9958da5c1a595b9d60921b6044820152606401610307565b60405163a9059cbb60e01b81526001600160a01b0383811660048301526024820183905284169063a9059cbb906044016020604051808303815f875af11580156103a3573d5f803e3d5ffd5b505050506040513d601f19601f820116820180604052508101906103c7919061146d565b50505050565b336001600160a01b037f000000000000000000000000000000000000000000000000000000000000000016146104155760405162461bcd60e51b815260040161030790611447565b6001600160a01b0384166104575760405162461bcd60e51b81526020600482015260096024820152682d32b937903ab9b2b960b91b6044820152606401610307565b5f81116104945760405162461bcd60e51b815260206004820152600b60248201526a16995c9bc8185b5bdd5b9d60aa1b6044820152606401610307565b5f83836040516104a592919061148c565b604051809103902090507fe0a39fef8aa5887c76606e7a14a5db8dc6676191e4866b2a609a3aa003b1832981036104e5576104e08583610bb8565b610646565b7f281335d191299304b6bdb3c4042efa6414c8988df37f941868fa00511796515e8103610516576104e08583610d6a565b7fa2a03459171c76bff45817330c10ef9f8af07011a33005b73b50189bbc7e71328103610560576104e06006602160991b015f805160206116c0833981519152610bb88886610db8565b7fc570e6c17f57bc6841b1057f94fcf1785f440006714dbd98f64d859b54cd25d381036105b4576104e073940181a94a35a4569e4529a3cdfb74e38fd986315f805160206116c08339815191528785610e43565b7f8ca84c05e743ec4aa81b7149831bbc822389ff48eadb040bb205a5747b0330de810361060b576104e073c1cba3fcea344f92d9239c08c0568f6f2f0ee4525f805160206116c08339815191526101f48886610db8565b60405162461bcd60e51b815260206004820152601060248201526f155b9adb9bdddb881c1c9bdd1bd8dbdb60821b6044820152606401610307565b846001600160a01b03167f18af30a54a1951aeee806c16cdcb8d087ed1a095f0d9a87261b92cef2c6cc92d858585604051610683939291906114c3565b60405180910390a25050505050565b336001600160a01b037f000000000000000000000000000000000000000000000000000000000000000016146106da5760405162461bcd60e51b815260040161030790611447565b6001600160a01b03841661071c5760405162461bcd60e51b81526020600482015260096024820152682d32b937903ab9b2b960b91b6044820152606401610307565b5f81116107595760405162461bcd60e51b815260206004820152600b60248201526a16995c9bc8185b5bdd5b9d60aa1b6044820152606401610307565b6040516370a0823160e01b815230600482015281905f805160206116c0833981519152906370a0823190602401602060405180830381865afa1580156107a1573d5f803e3d5ffd5b505050506040513d601f19601f820116820180604052508101906107c591906114e6565b10156108075760405162461bcd60e51b8152602060048201526011602482015270496e73756666696369656e74205553444360781b6044820152606401610307565b5f838360405161081892919061148c565b604051809103902090507fe0a39fef8aa5887c76606e7a14a5db8dc6676191e4866b2a609a3aa003b183298103610858576108538583611000565b610a45565b7f281335d191299304b6bdb3c4042efa6414c8988df37f941868fa00511796515e810361088957610853858361110b565b7fa2a03459171c76bff45817330c10ef9f8af07011a33005b73b50189bbc7e713281036108d3576108535f805160206116c08339815191526006602160991b01610bb888866111d9565b7fc570e6c17f57bc6841b1057f94fcf1785f440006714dbd98f64d859b54cd25d38103610927576108535f805160206116c083398151915273940181a94a35a4569e4529a3cdfb74e38fd986318785610e43565b7f8ca84c05e743ec4aa81b7149831bbc822389ff48eadb040bb205a5747b0330de810361097e576108535f805160206116c083398151915273c1cba3fcea344f92d9239c08c0568f6f2f0ee4526101f488866111d9565b60405163a9059cbb60e01b81526001600160a01b0386166004820152602481018390525f805160206116c08339815191529063a9059cbb906044016020604051808303815f875af11580156109d5573d5f803e3d5ffd5b505050506040513d601f19601f820116820180604052508101906109f9919061146d565b50846001600160a01b03167fa1e16e95eb5b500b72484b8c9c1cfc21878478ad8b47006bab4e5d282a7f933c838686604051610a37939291906114fd565b60405180910390a2506103c7565b846001600160a01b03167ffd4bdef056842e4615d2a093647094c0b9bf67c63662d614d63fefd617e0add2858585604051610683939291906114c3565b6040516370a0823160e01b81526001600160a01b03821660048201525f90734e65fe4dba92790696d040ac24aa414708f5c0ab906370a08231906024015b602060405180830381865afa158015610adb573d5f803e3d5ffd5b505050506040513d601f19601f82011682018060405250810190610aff91906114e6565b92915050565b6040516370a0823160e01b81523060048201525f905f805160206116c0833981519152906370a0823190602401602060405180830381865afa158015610b4d573d5f803e3d5ffd5b505050506040513d601f19601f82011682018060405250810190610b7191906114e6565b905090565b60405163ce96cb7760e01b81526001600160a01b03821660048201525f9073c1256ae5ff1cf2719d4937adb3bbccab2e00a2ca9063ce96cb7790602401610ac0565b6040516323b872dd60e01b81526001600160a01b038316600482015230602482015260448101829052734e65fe4dba92790696d040ac24aa414708f5c0ab906323b872dd906064016020604051808303815f875af1158015610c1c573d5f803e3d5ffd5b505050506040513d601f19601f82011682018060405250810190610c40919061146d565b5060405163095ea7b360e01b815273a238dd80c259a72e81d7e4664a9801593f98d1c5600482015260248101829052734e65fe4dba92790696d040ac24aa414708f5c0ab9063095ea7b3906044016020604051808303815f875af1158015610caa573d5f803e3d5ffd5b505050506040513d601f19601f82011682018060405250810190610cce919061146d565b50604051631a4ca37b60e21b81525f805160206116c08339815191526004820152602481018290526001600160a01b038316604482015273a238dd80c259a72e81d7e4664a9801593f98d1c5906369328dec906064015b6020604051808303815f875af1158015610d41573d5f803e3d5ffd5b505050506040513d601f19601f82011682018060405250810190610d6591906114e6565b505050565b604051632d182be560e21b8152600481018290526001600160a01b03831660248201819052604482015273c1256ae5ff1cf2719d4937adb3bbccab2e00a2ca9063b460af9490606401610d25565b6040516323b872dd60e01b81526001600160a01b038381166004830152306024830152604482018390528616906323b872dd906064016020604051808303815f875af1158015610e0a573d5f803e3d5ffd5b505050506040513d601f19601f82011682018060405250810190610e2e919061146d565b50610e3c85858585856111d9565b5050505050565b60405163095ea7b360e01b815273cf77a3ba9a5ca399b7c97c74d54e5b1beb874e436004820152602481018290526001600160a01b0385169063095ea7b3906044016020604051808303815f875af1158015610ea1573d5f803e3d5ffd5b505050506040513d601f19601f82011682018060405250810190610ec5919061146d565b506040805160018082528183019092525f91816020015b604080516080810182525f8082526020808301829052928201819052606082015282525f19909201910181610edc575050604080516080810182526001600160a01b038089168252871660208201525f91810182905273420dd381b31aef6683db6b902084cb0ffece40da6060820152825192935091839190610f6157610f61611533565b602090810291909101015273cf77a3ba9a5ca399b7c97c74d54e5b1beb874e4363cac88ea9835f8487610f9642610708611547565b6040518663ffffffff1660e01b8152600401610fb6959493929190611566565b5f604051808303815f875af1158015610fd1573d5f803e3d5ffd5b505050506040513d5f823e601f3d908101601f19168201604052610ff89190810190611606565b505050505050565b60405163095ea7b360e01b815273a238dd80c259a72e81d7e4664a9801593f98d1c56004820152602481018290525f805160206116c08339815191529063095ea7b3906044016020604051808303815f875af1158015611062573d5f803e3d5ffd5b505050506040513d601f19601f82011682018060405250810190611086919061146d565b5060405163617ba03760e01b81525f805160206116c08339815191526004820152602481018290526001600160a01b03831660448201525f606482015273a238dd80c259a72e81d7e4664a9801593f98d1c59063617ba037906084015f604051808303815f87803b1580156110f9575f80fd5b505af1158015610ff8573d5f803e3d5ffd5b60405163095ea7b360e01b815273c1256ae5ff1cf2719d4937adb3bbccab2e00a2ca6004820152602481018290525f805160206116c08339815191529063095ea7b3906044016020604051808303815f875af115801561116d573d5f803e3d5ffd5b505050506040513d601f19601f82011682018060405250810190611191919061146d565b50604051636e553f6560e01b8152600481018290526001600160a01b038316602482015273c1256ae5ff1cf2719d4937adb3bbccab2e00a2ca90636e553f6590604401610d25565b60405163095ea7b360e01b8152732626664c2603336e57b271c5c0b26f421741e4816004820152602481018290526001600160a01b0386169063095ea7b3906044016020604051808303815f875af1158015611237573d5f803e3d5ffd5b505050506040513d601f19601f8201168201806040525081019061125b919061146d565b506040805160e0810182526001600160a01b0387811682528681166020830190815262ffffff87811684860190815287841660608601908152608086018881525f60a0880181815260c0890191825298516304e45aaf60e01b815297518716600489015294518616602488015291519092166044860152905183166064850152516084840152925160a4830152915190911660c4820152732626664c2603336e57b271c5c0b26f421741e481906304e45aaf9060e4016020604051808303815f875af115801561132d573d5f803e3d5ffd5b505050506040513d601f19601f82011682018060405250810190610ff891906114e6565b80356001600160a01b0381168114611367575f80fd5b919050565b5f805f6060848603121561137e575f80fd5b61138784611351565b925061139560208501611351565b9150604084013590509250925092565b5f805f80606085870312156113b8575f80fd5b6113c185611351565b9350602085013567ffffffffffffffff808211156113dd575f80fd5b818701915087601f8301126113f0575f80fd5b8135818111156113fe575f80fd5b88602082850101111561140f575f80fd5b95986020929092019750949560400135945092505050565b5f60208284031215611437575f80fd5b61144082611351565b9392505050565b6020808252600c908201526b2737ba1037b832b930ba37b960a11b604082015260600190565b5f6020828403121561147d575f80fd5b81518015158114611440575f80fd5b818382375f9101908152919050565b81835281816020850137505f828201602090810191909152601f909101601f19169091010190565b604081525f6114d660408301858761149b565b9050826020830152949350505050565b5f602082840312156114f6575f80fd5b5051919050565b838152604060208201525f61151660408301848661149b565b95945050505050565b634e487b7160e01b5f52604160045260245ffd5b634e487b7160e01b5f52603260045260245ffd5b80820180821115610aff57634e487b7160e01b5f52601160045260245ffd5b5f60a0820187835260208781850152604060a08186015282885180855260c087019150838a0194505f5b818110156115da57855180516001600160a01b0390811685528682015181168786015285820151151586860152606091820151169084015294840194608090920191600101611590565b50506001600160a01b038816606087015293506115f692505050565b8260808301529695505050505050565b5f6020808385031215611617575f80fd5b825167ffffffffffffffff8082111561162e575f80fd5b818501915085601f830112611641575f80fd5b8151818111156116535761165361151f565b8060051b604051601f19603f830116810181811085821117156116785761167861151f565b604052918252848201925083810185019188831115611695575f80fd5b938501935b828510156116b35784518452938501939285019261169a565b9897505050505050505056fe000000000000000000000000833589fcd6edb6e08f4c7c32d4f71b54bda02913a264697066735822122044932ce140dc9a644820576f4ad3281b4fd80329a534f7f19e2d3aafec2834e864736f6c63430008140033","linkReferences":{}},"methodIdentifiers":{"AAVE_V3()":"32139496","AERO()":"1691bd6f","AERODROME_FACTORY()":"15cb51ce","AERODROME_ROUTER()":"db37bab4","A_USDC()":"c9d05ea1","MORPHO_VAULT()":"5bca49d2","OPERATOR()":"983d2737","UNISWAP_ROUTER()":"d8264920","USDC()":"89a30271","WETH()":"ad5c4648","WSTETH()":"d9fb643a","forward(address,string,uint256)":"5df6c63e","recover(address,address,uint256)":"1ec82cb8","usdcBalance()":"73688e56","userAaveBalance(address)":"6485b555","userMorphoBalance(address)":"83c2ae4b","withdraw(address,string,uint256)":"1f6eafc5"},"id":0}